{"src/contracts/DocumentStorage.sol":{"DocumentStorage":{"abi":[{"inputs":[],"stateMutability":"nonpayable","type":"constructor"},{"anonymous":false,"inputs":[{"indexed":true,"internalType":"address","name":"user","type":"address"},{"indexed":false,"internalType":"string","name":"ipfsHash","type":"string"}],"name":"DocumentStored","type":"event"},{"anonymous":false,"inputs":[{"indexed":false,"internalType":"uint256","name":"newFee","type":"uint256"}],"name":"FeeUpdated","type":"event"},{"inputs":[],"name":"getUserDocuments","outputs":[{"internalType":"string[]","name":"","type":"string[]"}],"stateMutability":"view","type":"function"},{"inputs":[],"name":"owner","outputs":[{"internalType":"address","name":"","type":"address"}],"stateMutability":"view","type":"function"},{"inputs":[{"internalType":"uint256","name":"_newFee","type":"uint256"}],"name":"setUploadFee","outputs":[],"stateMutability":"nonpayable","type":"function"},{"inputs":[{"internalType":"string","name":"_ipfsHash","type":"string"}],"name":"storeDocument","outputs":[],"stateMutability":"payable","type":"function"},{"inputs":[],"name":"uploadFee","outputs":[{"internalType":"uint256","name":"","type":"uint256"}],"stateMutability":"view","type":"function"},{"inputs":[],"name":"withdraw","outputs":[],"stateMutability":"nonpayable","type":"function"}],"evm":{"bytecode":{"linkReferences":{},"object":"608060405266038d7ea4c6800060015534801561001b57600080fd5b50336000806101000a81548173ffffffffffffffffffffffffffffffffffffffff021916908373ffffffffffffffffffffffffffffffffffffffff160217905550610e748061006b6000396000f3fe6080604052600436106100555760003560e01c80633ccfd60b1461005a5780638da5cb5b14610071578063b1a7910a1461009c578063b4638516146100c5578063b644f350146100f0578063ffd028911461010c575b600080fd5b34801561006657600080fd5b5061006f610137565b005b34801561007d57600080fd5b5061008661022e565b60405161009391906105e5565b60405180910390f35b3480156100a857600080fd5b506100c360048036038101906100be919061064a565b610252565b005b3480156100d157600080fd5b506100da610321565b6040516100e791906107c9565b60405180910390f35b61010a60048036038101906101059190610920565b610437565b005b34801561011857600080fd5b5061012161059e565b60405161012e9190610978565b60405180910390f35b60008054906101000a900473ffffffffffffffffffffffffffffffffffffffff1673ffffffffffffffffffffffffffffffffffffffff163373ffffffffffffffffffffffffffffffffffffffff16146101c5576040517f08c379a00000000000000000000000000000000000000000000000000000000081526004016101bc90610a16565b60405180910390fd5b60008054906101000a900473ffffffffffffffffffffffffffffffffffffffff1673ffffffffffffffffffffffffffffffffffffffff166108fc479081150290604051600060405180830381858888f1935050505015801561022b573d6000803e3d6000fd5b50565b60008054906101000a900473ffffffffffffffffffffffffffffffffffffffff1681565b60008054906101000a900473ffffffffffffffffffffffffffffffffffffffff1673ffffffffffffffffffffffffffffffffffffffff163373ffffffffffffffffffffffffffffffffffffffff16146102e0576040517f08c379a00000000000000000000000000000000000000000000000000000000081526004016102d790610a16565b60405180910390fd5b806001819055507f8c4d35e54a3f2ef1134138fd8ea3daee6a3c89e10d2665996babdf70261e2c76816040516103169190610978565b60405180910390a150565b6060600260003373ffffffffffffffffffffffffffffffffffffffff1673ffffffffffffffffffffffffffffffffffffffff168152602001908152602001600020805480602002602001604051908101604052809291908181526020016000905b8282101561042e5783829060005260206000200180546103a190610a65565b80601f01602080910402602001604051908101604052809291908181526020018280546103cd90610a65565b801561041a5780601f106103ef5761010080835404028352916020019161041a565b820191906000526020600020905b8154815290600101906020018083116103fd57829003601f168201915b505050505081526020019060010190610382565b50505050905090565b60015434101561047c576040517f08c379a000000000000000000000000000000000000000000000000000000000815260040161047390610ae2565b60405180910390fd5b600260003373ffffffffffffffffffffffffffffffffffffffff1673ffffffffffffffffffffffffffffffffffffffff168152602001908152602001600020819080600181540180825580915050600190039060005260206000200160009091909190915090816104ed9190610cae565b503373ffffffffffffffffffffffffffffffffffffffff167f92fd2035a62889716b60f996fe696b401ef46811da665cfce0d76b84deacea22826040516105349190610db9565b60405180910390a260015434111561059b573373ffffffffffffffffffffffffffffffffffffffff166108fc6001543461056e9190610e0a565b9081150290604051600060405180830381858888f19350505050158015610599573d6000803e3d6000fd5b505b50565b60015481565b600073ffffffffffffffffffffffffffffffffffffffff82169050919050565b60006105cf826105a4565b9050919050565b6105df816105c4565b82525050565b60006020820190506105fa60008301846105d6565b92915050565b6000604051905090565b600080fd5b600080fd5b6000819050919050565b61062781610614565b811461063257600080fd5b50565b6000813590506106448161061e565b92915050565b6000602082840312156106605761065f61060a565b5b600061066e84828501610635565b91505092915050565b600081519050919050565b600082825260208201905092915050565b6000819050602082019050919050565b600081519050919050565b600082825260208201905092915050565b60005b838110156106dd5780820151818401526020810190506106c2565b60008484015250505050565b6000601f19601f8301169050919050565b6000610705826106a3565b61070f81856106ae565b935061071f8185602086016106bf565b610728816106e9565b840191505092915050565b600061073f83836106fa565b905092915050565b6000602082019050919050565b600061075f82610677565b6107698185610682565b93508360208202850161077b85610693565b8060005b858110156107b757848403895281516107988582610733565b94506107a383610747565b925060208a0199505060018101905061077f565b50829750879550505050505092915050565b600060208201905081810360008301526107e38184610754565b905092915050565b600080fd5b600080fd5b7f4e487b7100000000000000000000000000000000000000000000000000000000600052604160045260246000fd5b61082d826106e9565b810181811067ffffffffffffffff8211171561084c5761084b6107f5565b5b80604052505050565b600061085f610600565b905061086b8282610824565b919050565b600067ffffffffffffffff82111561088b5761088a6107f5565b5b610894826106e9565b9050602081019050919050565b82818337600083830152505050565b60006108c36108be84610870565b610855565b9050828152602081018484840111156108df576108de6107f0565b5b6108ea8482856108a1565b509392505050565b600082601f830112610907576109066107eb565b5b81356109178482602086016108b0565b91505092915050565b6000602082840312156109365761093561060a565b5b600082013567ffffffffffffffff8111156109545761095361060f565b5b610960848285016108f2565b91505092915050565b61097281610614565b82525050565b600060208201905061098d6000830184610969565b92915050565b600082825260208201905092915050565b7f4f6e6c79206f776e65722063616e2063616c6c20746869732066756e6374696f60008201527f6e00000000000000000000000000000000000000000000000000000000000000602082015250565b6000610a00602183610993565b9150610a0b826109a4565b604082019050919050565b60006020820190508181036000830152610a2f816109f3565b9050919050565b7f4e487b7100000000000000000000000000000000000000000000000000000000600052602260045260246000fd5b60006002820490506001821680610a7d57607f821691505b602082108103610a9057610a8f610a36565b5b50919050565b7f496e73756666696369656e74207061796d656e74000000000000000000000000600082015250565b6000610acc601483610993565b9150610ad782610a96565b602082019050919050565b60006020820190508181036000830152610afb81610abf565b9050919050565b60008190508160005260206000209050919050565b60006020601f8301049050919050565b600082821b905092915050565b600060088302610b647fffffffffffffffffffffffffffffffffffffffffffffffffffffffffffffffff82610b27565b610b6e8683610b27565b95508019841693508086168417925050509392505050565b6000819050919050565b6000610bab610ba6610ba184610614565b610b86565b610614565b9050919050565b6000819050919050565b610bc583610b90565b610bd9610bd182610bb2565b848454610b34565b825550505050565b600090565b610bee610be1565b610bf9818484610bbc565b505050565b5b81811015610c1d57610c12600082610be6565b600181019050610bff565b5050565b601f821115610c6257610c3381610b02565b610c3c84610b17565b81016020851015610c4b578190505b610c5f610c5785610b17565b830182610bfe565b50505b505050565b600082821c905092915050565b6000610c8560001984600802610c67565b1980831691505092915050565b6000610c9e8383610c74565b9150826002028217905092915050565b610cb7826106a3565b67ffffffffffffffff811115610cd057610ccf6107f5565b5b610cda8254610a65565b610ce5828285610c21565b600060209050601f831160018114610d185760008415610d06578287015190505b610d108582610c92565b865550610d78565b601f198416610d2686610b02565b60005b82811015610d4e57848901518255600182019150602085019450602081019050610d29565b86831015610d6b5784890151610d67601f891682610c74565b8355505b6001600288020188555050505b505050505050565b6000610d8b826106a3565b610d958185610993565b9350610da58185602086016106bf565b610dae816106e9565b840191505092915050565b60006020820190508181036000830152610dd38184610d80565b905092915050565b7f4e487b7100000000000000000000000000000000000000000000000000000000600052601160045260246000fd5b6000610e1582610614565b9150610e2083610614565b9250828203905081811115610e3857610e37610ddb565b5b9291505056fea26469706673582212201d7a252360f75b398c8a75679ead23f2da10c6ae7cb3ef35bf56def06200e17764736f6c63430008130033","opcodes":"PUSH1 0x80 PUSH1 0x40 MSTORE PUSH7 0x38D7EA4C68000 PUSH1 0x1 SSTORE CALLVALUE DUP1 ISZERO PUSH2 0x1B JUMPI PUSH1 0x0 DUP1 REVERT JUMPDEST POP CALLER PUSH1 0x0 DUP1 PUSH2 0x100 EXP DUP2 SLOAD DUP2 PUSH20 0xFFFFFFFFFFFFFFFFFFFFFFFFFFFFFFFFFFFFFFFF MUL NOT AND SWAP1 DUP4 PUSH20 0xFFFFFFFFFFFFFFFFFFFFFFFFFFFFFFFFFFFFFFFF AND MUL OR SWAP1 SSTORE POP PUSH2 0xE74 DUP1 PUSH2 0x6B PUSH1 0x0 CODECOPY PUSH1 0x0 RETURN INVALID PUSH1 0x80 PUSH1 0x40 MSTORE PUSH1 0x4 CALLDATASIZE LT PUSH2 0x55 JUMPI PUSH1 0x0 CALLDATALOAD PUSH1 0xE0 SHR DUP1 PUSH4 0x3CCFD60B EQ PUSH2 0x5A JUMPI DUP1 PUSH4 0x8DA5CB5B EQ PUSH2 0x71 JUMPI DUP1 PUSH4 0xB1A7910A EQ PUSH2 0x9C JUMPI DUP1 PUSH4 0xB4638516 EQ PUSH2 0xC5 JUMPI DUP1 PUSH4 0xB644F350 EQ PUSH2 0xF0 JUMPI DUP1 PUSH4 0xFFD02891 EQ PUSH2 0x10C JUMPI JUMPDEST PUSH1 0x0 DUP1 REVERT JUMPDEST CALLVALUE DUP1 ISZERO PUSH2 0x66 JUMPI PUSH1 0x0 DUP1 REVERT JUMPDEST POP PUSH2 0x6F PUSH2 0x137 JUMP JUMPDEST STOP JUMPDEST CALLVALUE DUP1 ISZERO PUSH2 0x7D JUMPI PUSH1 0x0 DUP1 REVERT JUMPDEST POP PUSH2 0x86 PUSH2 0x22E JUMP JUMPDEST PUSH1 0x40 MLOAD PUSH2 0x93 SWAP2 SWAP1 PUSH2 0x5E5 JUMP JUMPDEST PUSH1 0x40 MLOAD DUP1 SWAP2 SUB SWAP1 RETURN JUMPDEST CALLVALUE DUP1 ISZERO PUSH2 0xA8 JUMPI PUSH1 0x0 DUP1 REVERT JUMPDEST POP PUSH2 0xC3 PUSH1 0x4 DUP1 CALLDATASIZE SUB DUP2 ADD SWAP1 PUSH2 0xBE SWAP2 SWAP1 PUSH2 0x64A JUMP JUMPDEST PUSH2 0x252 JUMP JUMPDEST STOP JUMPDEST CALLVALUE DUP1 ISZERO PUSH2 0xD1 JUMPI PUSH1 0x0 DUP1 REVERT JUMPDEST POP PUSH2 0xDA PUSH2 0x321 JUMP JUMPDEST PUSH1 0x40 MLOAD PUSH2 0xE7 SWAP2 SWAP1 PUSH2 0x7C9 JUMP JUMPDEST PUSH1 0x40 MLOAD DUP1 SWAP2 SUB SWAP1 RETURN JUMPDEST PUSH2 0x10A PUSH1 0x4 DUP1 CALLDATASIZE SUB DUP2 ADD SWAP1 PUSH2 0x105 SWAP2 SWAP1 PUSH2 0x920 JUMP JUMPDEST PUSH2 0x437 JUMP JUMPDEST STOP JUMPDEST CALLVALUE DUP1 ISZERO PUSH2 0x118 JUMPI PUSH1 0x0 DUP1 REVERT JUMPDEST POP PUSH2 0x121 PUSH2 0x59E JUMP JUMPDEST PUSH1 0x40 MLOAD PUSH2 0x12E SWAP2 SWAP1 PUSH2 0x978 JUMP JUMPDEST PUSH1 0x40 MLOAD DUP1 SWAP2 SUB SWAP1 RETURN JUMPDEST PUSH1 0x0 DUP1 SLOAD SWAP1 PUSH2 0x100 EXP SWAP1 DIV PUSH20 0xFFFFFFFFFFFFFFFFFFFFFFFFFFFFFFFFFFFFFFFF AND PUSH20 0xFFFFFFFFFFFFFFFFFFFFFFFFFFFFFFFFFFFFFFFF AND CALLER PUSH20 0xFFFFFFFFFFFFFFFFFFFFFFFFFFFFFFFFFFFFFFFF AND EQ PUSH2 0x1C5 JUMPI PUSH1 0x40 MLOAD PUSH32 0x8C379A000000000000000000000000000000000000000000000000000000000 DUP2 MSTORE PUSH1 0x4 ADD PUSH2 0x1BC SWAP1 PUSH2 0xA16 JUMP JUMPDEST PUSH1 0x40 MLOAD DUP1 SWAP2 SUB SWAP1 REVERT JUMPDEST PUSH1 0x0 DUP1 SLOAD SWAP1 PUSH2 0x100 EXP SWAP1 DIV PUSH20 0xFFFFFFFFFFFFFFFFFFFFFFFFFFFFFFFFFFFFFFFF AND PUSH20 0xFFFFFFFFFFFFFFFFFFFFFFFFFFFFFFFFFFFFFFFF AND PUSH2 0x8FC SELFBALANCE SWAP1 DUP2 ISZERO MUL SWAP1 PUSH1 0x40 MLOAD PUSH1 0x0 PUSH1 0x40 MLOAD DUP1 DUP4 SUB DUP2 DUP6 DUP9 DUP9 CALL SWAP4 POP POP POP POP ISZERO DUP1 ISZERO PUSH2 0x22B JUMPI RETURNDATASIZE PUSH1 0x0 DUP1 RETURNDATACOPY RETURNDATASIZE PUSH1 0x0 REVERT JUMPDEST POP JUMP JUMPDEST PUSH1 0x0 DUP1 SLOAD SWAP1 PUSH2 0x100 EXP SWAP1 DIV PUSH20 0xFFFFFFFFFFFFFFFFFFFFFFFFFFFFFFFFFFFFFFFF AND DUP2 JUMP JUMPDEST PUSH1 0x0 DUP1 SLOAD SWAP1 PUSH2 0x100 EXP SWAP1 DIV PUSH20 0xFFFFFFFFFFFFFFFFFFFFFFFFFFFFFFFFFFFFFFFF AND PUSH20 0xFFFFFFFFFFFFFFFFFFFFFFFFFFFFFFFFFFFFFFFF AND CALLER PUSH20 0xFFFFFFFFFFFFFFFFFFFFFFFFFFFFFFFFFFFFFFFF AND EQ PUSH2 0x2E0 JUMPI PUSH1 0x40 MLOAD PUSH32 0x8C379A000000000000000000000000000000000000000000000000000000000 DUP2 MSTORE PUSH1 0x4 ADD PUSH2 0x2D7 SWAP1 PUSH2 0xA16 JUMP JUMPDEST PUSH1 0x40 MLOAD DUP1 SWAP2 SUB SWAP1 REVERT JUMPDEST DUP1 PUSH1 0x1 DUP2 SWAP1 SSTORE POP PUSH32 0x8C4D35E54A3F2EF1134138FD8EA3DAEE6A3C89E10D2665996BABDF70261E2C76 DUP2 PUSH1 0x40 MLOAD PUSH2 0x316 SWAP2 SWAP1 PUSH2 0x978 JUMP JUMPDEST PUSH1 0x40 MLOAD DUP1 SWAP2 SUB SWAP1 LOG1 POP JUMP JUMPDEST PUSH1 0x60 PUSH1 0x2 PUSH1 0x0 CALLER PUSH20 0xFFFFFFFFFFFFFFFFFFFFFFFFFFFFFFFFFFFFFFFF AND PUSH20 0xFFFFFFFFFFFFFFFFFFFFFFFFFFFFFFFFFFFFFFFF AND DUP2 MSTORE PUSH1 0x20 ADD SWAP1 DUP2 MSTORE PUSH1 0x20 ADD PUSH1 0x0 KECCAK256 DUP1 SLOAD DUP1 PUSH1 0x20 MUL PUSH1 0x20 ADD PUSH1 0x40 MLOAD SWAP1 DUP2 ADD PUSH1 0x40 MSTORE DUP1 SWAP3 SWAP2 SWAP1 DUP2 DUP2 MSTORE PUSH1 0x20 ADD PUSH1 0x0 SWAP1 JUMPDEST DUP3 DUP3 LT ISZERO PUSH2 0x42E JUMPI DUP4 DUP3 SWAP1 PUSH1 0x0 MSTORE PUSH1 0x20 PUSH1 0x0 KECCAK256 ADD DUP1 SLOAD PUSH2 0x3A1 SWAP1 PUSH2 0xA65 JUMP JUMPDEST DUP1 PUSH1 0x1F ADD PUSH1 0x20 DUP1 SWAP2 DIV MUL PUSH1 0x20 ADD PUSH1 0x40 MLOAD SWAP1 DUP2 ADD PUSH1 0x40 MSTORE DUP1 SWAP3 SWAP2 SWAP1 DUP2 DUP2 MSTORE PUSH1 0x20 ADD DUP3 DUP1 SLOAD PUSH2 0x3CD SWAP1 PUSH2 0xA65 JUMP JUMPDEST DUP1 ISZERO PUSH2 0x41A JUMPI DUP1 PUSH1 0x1F LT PUSH2 0x3EF JUMPI PUSH2 0x100 DUP1 DUP4 SLOAD DIV MUL DUP4 MSTORE SWAP2 PUSH1 0x20 ADD SWAP2 PUSH2 0x41A JUMP JUMPDEST DUP3 ADD SWAP2 SWAP1 PUSH1 0x0 MSTORE PUSH1 0x20 PUSH1 0x0 KECCAK256 SWAP1 JUMPDEST DUP2 SLOAD DUP2 MSTORE SWAP1 PUSH1 0x1 ADD SWAP1 PUSH1 0x20 ADD DUP1 DUP4 GT PUSH2 0x3FD JUMPI DUP3 SWAP1 SUB PUSH1 0x1F AND DUP3 ADD SWAP2 JUMPDEST POP POP POP POP POP DUP2 MSTORE PUSH1 0x20 ADD SWAP1 PUSH1 0x1 ADD SWAP1 PUSH2 0x382 JUMP JUMPDEST POP POP POP POP SWAP1 POP SWAP1 JUMP JUMPDEST PUSH1 0x1 SLOAD CALLVALUE LT ISZERO PUSH2 0x47C JUMPI PUSH1 0x40 MLOAD PUSH32 0x8C379A000000000000000000000000000000000000000000000000000000000 DUP2 MSTORE PUSH1 0x4 ADD PUSH2 0x473 SWAP1 PUSH2 0xAE2 JUMP JUMPDEST PUSH1 0x40 MLOAD DUP1 SWAP2 SUB SWAP1 REVERT JUMPDEST PUSH1 0x2 PUSH1 0x0 CALLER PUSH20 0xFFFFFFFFFFFFFFFFFFFFFFFFFFFFFFFFFFFFFFFF AND PUSH20 0xFFFFFFFFFFFFFFFFFFFFFFFFFFFFFFFFFFFFFFFF AND DUP2 MSTORE PUSH1 0x20 ADD SWAP1 DUP2 MSTORE PUSH1 0x20 ADD PUSH1 0x0 KECCAK256 DUP2 SWAP1 DUP1 PUSH1 0x1 DUP2 SLOAD ADD DUP1 DUP3 SSTORE DUP1 SWAP2 POP POP PUSH1 0x1 SWAP1 SUB SWAP1 PUSH1 0x0 MSTORE PUSH1 0x20 PUSH1 0x0 KECCAK256 ADD PUSH1 0x0 SWAP1 SWAP2 SWAP1 SWAP2 SWAP1 SWAP2 POP SWAP1 DUP2 PUSH2 0x4ED SWAP2 SWAP1 PUSH2 0xCAE JUMP JUMPDEST POP CALLER PUSH20 0xFFFFFFFFFFFFFFFFFFFFFFFFFFFFFFFFFFFFFFFF AND PUSH32 0x92FD2035A62889716B60F996FE696B401EF46811DA665CFCE0D76B84DEACEA22 DUP3 PUSH1 0x40 MLOAD PUSH2 0x534 SWAP2 SWAP1 PUSH2 0xDB9 JUMP JUMPDEST PUSH1 0x40 MLOAD DUP1 SWAP2 SUB SWAP1 LOG2 PUSH1 0x1 SLOAD CALLVALUE GT ISZERO PUSH2 0x59B JUMPI CALLER PUSH20 0xFFFFFFFFFFFFFFFFFFFFFFFFFFFFFFFFFFFFFFFF AND PUSH2 0x8FC PUSH1 0x1 SLOAD CALLVALUE PUSH2 0x56E SWAP2 SWAP1 PUSH2 0xE0A JUMP JUMPDEST SWAP1 DUP2 ISZERO MUL SWAP1 PUSH1 0x40 MLOAD PUSH1 0x0 PUSH1 0x40 MLOAD DUP1 DUP4 SUB DUP2 DUP6 DUP9 DUP9 CALL SWAP4 POP POP POP POP ISZERO DUP1 ISZERO PUSH2 0x599 JUMPI RETURNDATASIZE PUSH1 0x0 DUP1 RETURNDATACOPY RETURNDATASIZE PUSH1 0x0 REVERT JUMPDEST POP JUMPDEST POP JUMP JUMPDEST PUSH1 0x1 SLOAD DUP2 JUMP JUMPDEST PUSH1 0x0 PUSH20 0xFFFFFFFFFFFFFFFFFFFFFFFFFFFFFFFFFFFFFFFF DUP3 AND SWAP1 POP SWAP2 SWAP1 POP JUMP JUMPDEST PUSH1 0x0 PUSH2 0x5CF DUP3 PUSH2 0x5A4 JUMP JUMPDEST SWAP1 POP SWAP2 SWAP1 POP JUMP JUMPDEST PUSH2 0x5DF DUP2 PUSH2 0x5C4 JUMP JUMPDEST DUP3 MSTORE POP POP JUMP JUMPDEST PUSH1 0x0 PUSH1 0x20 DUP3 ADD SWAP1 POP PUSH2 0x5FA PUSH1 0x0 DUP4 ADD DUP5 PUSH2 0x5D6 JUMP JUMPDEST SWAP3 SWAP2 POP POP JUMP JUMPDEST PUSH1 0x0 PUSH1 0x40 MLOAD SWAP1 POP SWAP1 JUMP JUMPDEST PUSH1 0x0 DUP1 REVERT JUMPDEST PUSH1 0x0 DUP1 REVERT JUMPDEST PUSH1 0x0 DUP2 SWAP1 POP SWAP2 SWAP1 POP JUMP JUMPDEST PUSH2 0x627 DUP2 PUSH2 0x614 JUMP JUMPDEST DUP2 EQ PUSH2 0x632 JUMPI PUSH1 0x0 DUP1 REVERT JUMPDEST POP JUMP JUMPDEST PUSH1 0x0 DUP2 CALLDATALOAD SWAP1 POP PUSH2 0x644 DUP2 PUSH2 0x61E JUMP JUMPDEST SWAP3 SWAP2 POP POP JUMP JUMPDEST PUSH1 0x0 PUSH1 0x20 DUP3 DUP5 SUB SLT ISZERO PUSH2 0x660 JUMPI PUSH2 0x65F PUSH2 0x60A JUMP JUMPDEST JUMPDEST PUSH1 0x0 PUSH2 0x66E DUP5 DUP3 DUP6 ADD PUSH2 0x635 JUMP JUMPDEST SWAP2 POP POP SWAP3 SWAP2 POP POP JUMP JUMPDEST PUSH1 0x0 DUP2 MLOAD SWAP1 POP SWAP2 SWAP1 POP JUMP JUMPDEST PUSH1 0x0 DUP3 DUP3 MSTORE PUSH1 0x20 DUP3 ADD SWAP1 POP SWAP3 SWAP2 POP POP JUMP JUMPDEST PUSH1 0x0 DUP2 SWAP1 POP PUSH1 0x20 DUP3 ADD SWAP1 POP SWAP2 SWAP1 POP JUMP JUMPDEST PUSH1 0x0 DUP2 MLOAD SWAP1 POP SWAP2 SWAP1 POP JUMP JUMPDEST PUSH1 0x0 DUP3 DUP3 MSTORE PUSH1 0x20 DUP3 ADD SWAP1 POP SWAP3 SWAP2 POP POP JUMP JUMPDEST PUSH1 0x0 JUMPDEST DUP4 DUP2 LT ISZERO PUSH2 0x6DD JUMPI DUP1 DUP3 ADD MLOAD DUP2 DUP5 ADD MSTORE PUSH1 0x20 DUP2 ADD SWAP1 POP PUSH2 0x6C2 JUMP JUMPDEST PUSH1 0x0 DUP5 DUP5 ADD MSTORE POP POP POP POP JUMP JUMPDEST PUSH1 0x0 PUSH1 0x1F NOT PUSH1 0x1F DUP4 ADD AND SWAP1 POP SWAP2 SWAP1 POP JUMP JUMPDEST PUSH1 0x0 PUSH2 0x705 DUP3 PUSH2 0x6A3 JUMP JUMPDEST PUSH2 0x70F DUP2 DUP6 PUSH2 0x6AE JUMP JUMPDEST SWAP4 POP PUSH2 0x71F DUP2 DUP6 PUSH1 0x20 DUP7 ADD PUSH2 0x6BF JUMP JUMPDEST PUSH2 0x728 DUP2 PUSH2 0x6E9 JUMP JUMPDEST DUP5 ADD SWAP2 POP POP SWAP3 SWAP2 POP POP JUMP JUMPDEST PUSH1 0x0 PUSH2 0x73F DUP4 DUP4 PUSH2 0x6FA JUMP JUMPDEST SWAP1 POP SWAP3 SWAP2 POP POP JUMP JUMPDEST PUSH1 0x0 PUSH1 0x20 DUP3 ADD SWAP1 POP SWAP2 SWAP1 POP JUMP JUMPDEST PUSH1 0x0 PUSH2 0x75F DUP3 PUSH2 0x677 JUMP JUMPDEST PUSH2 0x769 DUP2 DUP6 PUSH2 0x682 JUMP JUMPDEST SWAP4 POP DUP4 PUSH1 0x20 DUP3 MUL DUP6 ADD PUSH2 0x77B DUP6 PUSH2 0x693 JUMP JUMPDEST DUP1 PUSH1 0x0 JUMPDEST DUP6 DUP2 LT ISZERO PUSH2 0x7B7 JUMPI DUP5 DUP5 SUB DUP10 MSTORE DUP2 MLOAD PUSH2 0x798 DUP6 DUP3 PUSH2 0x733 JUMP JUMPDEST SWAP5 POP PUSH2 0x7A3 DUP4 PUSH2 0x747 JUMP JUMPDEST SWAP3 POP PUSH1 0x20 DUP11 ADD SWAP10 POP POP PUSH1 0x1 DUP2 ADD SWAP1 POP PUSH2 0x77F JUMP JUMPDEST POP DUP3 SWAP8 POP DUP8 SWAP6 POP POP POP POP POP POP SWAP3 SWAP2 POP POP JUMP JUMPDEST PUSH1 0x0 PUSH1 0x20 DUP3 ADD SWAP1 POP DUP2 DUP2 SUB PUSH1 0x0 DUP4 ADD MSTORE PUSH2 0x7E3 DUP2 DUP5 PUSH2 0x754 JUMP JUMPDEST SWAP1 POP SWAP3 SWAP2 POP POP JUMP JUMPDEST PUSH1 0x0 DUP1 REVERT JUMPDEST PUSH1 0x0 DUP1 REVERT JUMPDEST PUSH32 0x4E487B7100000000000000000000000000000000000000000000000000000000 PUSH1 0x0 MSTORE PUSH1 0x41 PUSH1 0x4 MSTORE PUSH1 0x24 PUSH1 0x0 REVERT JUMPDEST PUSH2 0x82D DUP3 PUSH2 0x6E9 JUMP JUMPDEST DUP2 ADD DUP2 DUP2 LT PUSH8 0xFFFFFFFFFFFFFFFF DUP3 GT OR ISZERO PUSH2 0x84C JUMPI PUSH2 0x84B PUSH2 0x7F5 JUMP JUMPDEST JUMPDEST DUP1 PUSH1 0x40 MSTORE POP POP POP JUMP JUMPDEST PUSH1 0x0 PUSH2 0x85F PUSH2 0x600 JUMP JUMPDEST SWAP1 POP PUSH2 0x86B DUP3 DUP3 PUSH2 0x824 JUMP JUMPDEST SWAP2 SWAP1 POP JUMP JUMPDEST PUSH1 0x0 PUSH8 0xFFFFFFFFFFFFFFFF DUP3 GT ISZERO PUSH2 0x88B JUMPI PUSH2 0x88A PUSH2 0x7F5 JUMP JUMPDEST JUMPDEST PUSH2 0x894 DUP3 PUSH2 0x6E9 JUMP JUMPDEST SWAP1 POP PUSH1 0x20 DUP2 ADD SWAP1 POP SWAP2 SWAP1 POP JUMP JUMPDEST DUP3 DUP2 DUP4 CALLDATACOPY PUSH1 0x0 DUP4 DUP4 ADD MSTORE POP POP POP JUMP JUMPDEST PUSH1 0x0 PUSH2 0x8C3 PUSH2 0x8BE DUP5 PUSH2 0x870 JUMP JUMPDEST PUSH2 0x855 JUMP JUMPDEST SWAP1 POP DUP3 DUP2 MSTORE PUSH1 0x20 DUP2 ADD DUP5 DUP5 DUP5 ADD GT ISZERO PUSH2 0x8DF JUMPI PUSH2 0x8DE PUSH2 0x7F0 JUMP JUMPDEST JUMPDEST PUSH2 0x8EA DUP5 DUP3 DUP6 PUSH2 0x8A1 JUMP JUMPDEST POP SWAP4 SWAP3 POP POP POP JUMP JUMPDEST PUSH1 0x0 DUP3 PUSH1 0x1F DUP4 ADD SLT PUSH2 0x907 JUMPI PUSH2 0x906 PUSH2 0x7EB JUMP JUMPDEST JUMPDEST DUP2 CALLDATALOAD PUSH2 0x917 DUP5 DUP3 PUSH1 0x20 DUP7 ADD PUSH2 0x8B0 JUMP JUMPDEST SWAP2 POP POP SWAP3 SWAP2 POP POP JUMP JUMPDEST PUSH1 0x0 PUSH1 0x20 DUP3 DUP5 SUB SLT ISZERO PUSH2 0x936 JUMPI PUSH2 0x935 PUSH2 0x60A JUMP JUMPDEST JUMPDEST PUSH1 0x0 DUP3 ADD CALLDATALOAD PUSH8 0xFFFFFFFFFFFFFFFF DUP2 GT ISZERO PUSH2 0x954 JUMPI PUSH2 0x953 PUSH2 0x60F JUMP JUMPDEST JUMPDEST PUSH2 0x960 DUP5 DUP3 DUP6 ADD PUSH2 0x8F2 JUMP JUMPDEST SWAP2 POP POP SWAP3 SWAP2 POP POP JUMP JUMPDEST PUSH2 0x972 DUP2 PUSH2 0x614 JUMP JUMPDEST DUP3 MSTORE POP POP JUMP JUMPDEST PUSH1 0x0 PUSH1 0x20 DUP3 ADD SWAP1 POP PUSH2 0x98D PUSH1 0x0 DUP4 ADD DUP5 PUSH2 0x969 JUMP JUMPDEST SWAP3 SWAP2 POP POP JUMP JUMPDEST PUSH1 0x0 DUP3 DUP3 MSTORE PUSH1 0x20 DUP3 ADD SWAP1 POP SWAP3 SWAP2 POP POP JUMP JUMPDEST PUSH32 0x4F6E6C79206F776E65722063616E2063616C6C20746869732066756E6374696F PUSH1 0x0 DUP3 ADD MSTORE PUSH32 0x6E00000000000000000000000000000000000000000000000000000000000000 PUSH1 0x20 DUP3 ADD MSTORE POP JUMP JUMPDEST PUSH1 0x0 PUSH2 0xA00 PUSH1 0x21 DUP4 PUSH2 0x993 JUMP JUMPDEST SWAP2 POP PUSH2 0xA0B DUP3 PUSH2 0x9A4 JUMP JUMPDEST PUSH1 0x40 DUP3 ADD SWAP1 POP SWAP2 SWAP1 POP JUMP JUMPDEST PUSH1 0x0 PUSH1 0x20 DUP3 ADD SWAP1 POP DUP2 DUP2 SUB PUSH1 0x0 DUP4 ADD MSTORE PUSH2 0xA2F DUP2 PUSH2 0x9F3 JUMP JUMPDEST SWAP1 POP SWAP2 SWAP1 POP JUMP JUMPDEST PUSH32 0x4E487B7100000000000000000000000000000000000000000000000000000000 PUSH1 0x0 MSTORE PUSH1 0x22 PUSH1 0x4 MSTORE PUSH1 0x24 PUSH1 0x0 REVERT JUMPDEST PUSH1 0x0 PUSH1 0x2 DUP3 DIV SWAP1 POP PUSH1 0x1 DUP3 AND DUP1 PUSH2 0xA7D JUMPI PUSH1 0x7F DUP3 AND SWAP2 POP JUMPDEST PUSH1 0x20 DUP3 LT DUP2 SUB PUSH2 0xA90 JUMPI PUSH2 0xA8F PUSH2 0xA36 JUMP JUMPDEST JUMPDEST POP SWAP2 SWAP1 POP JUMP JUMPDEST PUSH32 0x496E73756666696369656E74207061796D656E74000000000000000000000000 PUSH1 0x0 DUP3 ADD MSTORE POP JUMP JUMPDEST PUSH1 0x0 PUSH2 0xACC PUSH1 0x14 DUP4 PUSH2 0x993 JUMP JUMPDEST SWAP2 POP PUSH2 0xAD7 DUP3 PUSH2 0xA96 JUMP JUMPDEST PUSH1 0x20 DUP3 ADD SWAP1 POP SWAP2 SWAP1 POP JUMP JUMPDEST PUSH1 0x0 PUSH1 0x20 DUP3 ADD SWAP1 POP DUP2 DUP2 SUB PUSH1 0x0 DUP4 ADD MSTORE PUSH2 0xAFB DUP2 PUSH2 0xABF JUMP JUMPDEST SWAP1 POP SWAP2 SWAP1 POP JUMP JUMPDEST PUSH1 0x0 DUP2 SWAP1 POP DUP2 PUSH1 0x0 MSTORE PUSH1 0x20 PUSH1 0x0 KECCAK256 SWAP1 POP SWAP2 SWAP1 POP JUMP JUMPDEST PUSH1 0x0 PUSH1 0x20 PUSH1 0x1F DUP4 ADD DIV SWAP1 POP SWAP2 SWAP1 POP JUMP JUMPDEST PUSH1 0x0 DUP3 DUP3 SHL SWAP1 POP SWAP3 SWAP2 POP POP JUMP JUMPDEST PUSH1 0x0 PUSH1 0x8 DUP4 MUL PUSH2 0xB64 PUSH32 0xFFFFFFFFFFFFFFFFFFFFFFFFFFFFFFFFFFFFFFFFFFFFFFFFFFFFFFFFFFFFFFFF DUP3 PUSH2 0xB27 JUMP JUMPDEST PUSH2 0xB6E DUP7 DUP4 PUSH2 0xB27 JUMP JUMPDEST SWAP6 POP DUP1 NOT DUP5 AND SWAP4 POP DUP1 DUP7 AND DUP5 OR SWAP3 POP POP POP SWAP4 SWAP3 POP POP POP JUMP JUMPDEST PUSH1 0x0 DUP2 SWAP1 POP SWAP2 SWAP1 POP JUMP JUMPDEST PUSH1 0x0 PUSH2 0xBAB PUSH2 0xBA6 PUSH2 0xBA1 DUP5 PUSH2 0x614 JUMP JUMPDEST PUSH2 0xB86 JUMP JUMPDEST PUSH2 0x614 JUMP JUMPDEST SWAP1 POP SWAP2 SWAP1 POP JUMP JUMPDEST PUSH1 0x0 DUP2 SWAP1 POP SWAP2 SWAP1 POP JUMP JUMPDEST PUSH2 0xBC5 DUP4 PUSH2 0xB90 JUMP JUMPDEST PUSH2 0xBD9 PUSH2 0xBD1 DUP3 PUSH2 0xBB2 JUMP JUMPDEST DUP5 DUP5 SLOAD PUSH2 0xB34 JUMP JUMPDEST DUP3 SSTORE POP POP POP POP JUMP JUMPDEST PUSH1 0x0 SWAP1 JUMP JUMPDEST PUSH2 0xBEE PUSH2 0xBE1 JUMP JUMPDEST PUSH2 0xBF9 DUP2 DUP5 DUP5 PUSH2 0xBBC JUMP JUMPDEST POP POP POP JUMP JUMPDEST JUMPDEST DUP2 DUP2 LT ISZERO PUSH2 0xC1D JUMPI PUSH2 0xC12 PUSH1 0x0 DUP3 PUSH2 0xBE6 JUMP JUMPDEST PUSH1 0x1 DUP2 ADD SWAP1 POP PUSH2 0xBFF JUMP JUMPDEST POP POP JUMP JUMPDEST PUSH1 0x1F DUP3 GT ISZERO PUSH2 0xC62 JUMPI PUSH2 0xC33 DUP2 PUSH2 0xB02 JUMP JUMPDEST PUSH2 0xC3C DUP5 PUSH2 0xB17 JUMP JUMPDEST DUP2 ADD PUSH1 0x20 DUP6 LT ISZERO PUSH2 0xC4B JUMPI DUP2 SWAP1 POP JUMPDEST PUSH2 0xC5F PUSH2 0xC57 DUP6 PUSH2 0xB17 JUMP JUMPDEST DUP4 ADD DUP3 PUSH2 0xBFE JUMP JUMPDEST POP POP JUMPDEST POP POP POP JUMP JUMPDEST PUSH1 0x0 DUP3 DUP3 SHR SWAP1 POP SWAP3 SWAP2 POP POP JUMP JUMPDEST PUSH1 0x0 PUSH2 0xC85 PUSH1 0x0 NOT DUP5 PUSH1 0x8 MUL PUSH2 0xC67 JUMP JUMPDEST NOT DUP1 DUP4 AND SWAP2 POP POP SWAP3 SWAP2 POP POP JUMP JUMPDEST PUSH1 0x0 PUSH2 0xC9E DUP4 DUP4 PUSH2 0xC74 JUMP JUMPDEST SWAP2 POP DUP3 PUSH1 0x2 MUL DUP3 OR SWAP1 POP SWAP3 SWAP2 POP POP JUMP JUMPDEST PUSH2 0xCB7 DUP3 PUSH2 0x6A3 JUMP JUMPDEST PUSH8 0xFFFFFFFFFFFFFFFF DUP2 GT ISZERO PUSH2 0xCD0 JUMPI PUSH2 0xCCF PUSH2 0x7F5 JUMP JUMPDEST JUMPDEST PUSH2 0xCDA DUP3 SLOAD PUSH2 0xA65 JUMP JUMPDEST PUSH2 0xCE5 DUP3 DUP3 DUP6 PUSH2 0xC21 JUMP JUMPDEST PUSH1 0x0 PUSH1 0x20 SWAP1 POP PUSH1 0x1F DUP4 GT PUSH1 0x1 DUP2 EQ PUSH2 0xD18 JUMPI PUSH1 0x0 DUP5 ISZERO PUSH2 0xD06 JUMPI DUP3 DUP8 ADD MLOAD SWAP1 POP JUMPDEST PUSH2 0xD10 DUP6 DUP3 PUSH2 0xC92 JUMP JUMPDEST DUP7 SSTORE POP PUSH2 0xD78 JUMP JUMPDEST PUSH1 0x1F NOT DUP5 AND PUSH2 0xD26 DUP7 PUSH2 0xB02 JUMP JUMPDEST PUSH1 0x0 JUMPDEST DUP3 DUP2 LT ISZERO PUSH2 0xD4E JUMPI DUP5 DUP10 ADD MLOAD DUP3 SSTORE PUSH1 0x1 DUP3 ADD SWAP2 POP PUSH1 0x20 DUP6 ADD SWAP5 POP PUSH1 0x20 DUP2 ADD SWAP1 POP PUSH2 0xD29 JUMP JUMPDEST DUP7 DUP4 LT ISZERO PUSH2 0xD6B JUMPI DUP5 DUP10 ADD MLOAD PUSH2 0xD67 PUSH1 0x1F DUP10 AND DUP3 PUSH2 0xC74 JUMP JUMPDEST DUP4 SSTORE POP JUMPDEST PUSH1 0x1 PUSH1 0x2 DUP9 MUL ADD DUP9 SSTORE POP POP POP JUMPDEST POP POP POP POP POP POP JUMP JUMPDEST PUSH1 0x0 PUSH2 0xD8B DUP3 PUSH2 0x6A3 JUMP JUMPDEST PUSH2 0xD95 DUP2 DUP6 PUSH2 0x993 JUMP JUMPDEST SWAP4 POP PUSH2 0xDA5 DUP2 DUP6 PUSH1 0x20 DUP7 ADD PUSH2 0x6BF JUMP JUMPDEST PUSH2 0xDAE DUP2 PUSH2 0x6E9 JUMP JUMPDEST DUP5 ADD SWAP2 POP POP SWAP3 SWAP2 POP POP JUMP JUMPDEST PUSH1 0x0 PUSH1 0x20 DUP3 ADD SWAP1 POP DUP2 DUP2 SUB PUSH1 0x0 DUP4 ADD MSTORE PUSH2 0xDD3 DUP2 DUP5 PUSH2 0xD80 JUMP JUMPDEST SWAP1 POP SWAP3 SWAP2 POP POP JUMP JUMPDEST PUSH32 0x4E487B7100000000000000000000000000000000000000000000000000000000 PUSH1 0x0 MSTORE PUSH1 0x11 PUSH1 0x4 MSTORE PUSH1 0x24 PUSH1 0x0 REVERT JUMPDEST PUSH1 0x0 PUSH2 0xE15 DUP3 PUSH2 0x614 JUMP JUMPDEST SWAP2 POP PUSH2 0xE20 DUP4 PUSH2 0x614 JUMP JUMPDEST SWAP3 POP DUP3 DUP3 SUB SWAP1 POP DUP2 DUP2 GT ISZERO PUSH2 0xE38 JUMPI PUSH2 0xE37 PUSH2 0xDDB JUMP JUMPDEST JUMPDEST SWAP3 SWAP2 POP POP JUMP INVALID LOG2 PUSH5 0x6970667358 0x22 SLT KECCAK256 SAR PUSH27 0x252360F75B398C8A75679EAD23F2DA10C6AE7CB3EF35BF56DEF062 STOP 0xE1 PUSH24 0x64736F6C6343000813003300000000000000000000000000 "},"methodIdentifiers":{"getUserDocuments()":"b4638516","owner()":"8da5cb5b","setUploadFee(uint256)":"b1a7910a","storeDocument(string)":"b644f350","uploadFee()":"ffd02891","withdraw()":"3ccfd60b"}}}}}