{
  "_format": "hh-sol-artifact-1",
  "contractName": "DocumentStorage",
  "sourceName": "src/contracts/DocumentStorage.sol",
  "abi": [
    {
      "inputs": [],
      "stateMutability": "nonpayable",
      "type": "constructor"
    },
    {
      "anonymous": false,
      "inputs": [
        {
          "indexed": true,
          "internalType": "address",
          "name": "user",
          "type": "address"
        },
        {
          "indexed": false,
          "internalType": "string",
          "name": "ipfsHash",
          "type": "string"
        }
      ],
      "name": "DocumentStored",
      "type": "event"
    },
    {
      "anonymous": false,
      "inputs": [
        {
          "indexed": false,
          "internalType": "uint256",
          "name": "newFee",
          "type": "uint256"
        }
      ],
      "name": "FeeUpdated",
      "type": "event"
    },
    {
      "inputs": [],
      "name": "getUserDocuments",
      "outputs": [
        {
          "internalType": "string[]",
          "name": "",
          "type": "string[]"
        }
      ],
      "stateMutability": "view",
      "type": "function"
    },
    {
      "inputs": [],
      "name": "owner",
      "outputs": [
        {
          "internalType": "address",
          "name": "",
          "type": "address"
        }
      ],
      "stateMutability": "view",
      "type": "function"
    },
    {
      "inputs": [
        {
          "internalType": "uint256",
          "name": "_newFee",
          "type": "uint256"
        }
      ],
      "name": "setUploadFee",
      "outputs": [],
      "stateMutability": "nonpayable",
      "type": "function"
    },
    {
      "inputs": [
        {
          "internalType": "string",
          "name": "_ipfsHash",
          "type": "string"
        }
      ],
      "name": "storeDocument",
      "outputs": [],
      "stateMutability": "payable",
      "type": "function"
    },
    {
      "inputs": [],
      "name": "uploadFee",
      "outputs": [
        {
          "internalType": "uint256",
          "name": "",
          "type": "uint256"
        }
      ],
      "stateMutability": "view",
      "type": "function"
    },
    {
      "inputs": [],
      "name": "withdraw",
      "outputs": [],
      "stateMutability": "nonpayable",
      "type": "function"
    }
  ],
  "bytecode": "0x608060405266038d7ea4c6800060015534801561001b57600080fd5b50336000806101000a81548173ffffffffffffffffffffffffffffffffffffffff021916908373ffffffffffffffffffffffffffffffffffffffff160217905550610e748061006b6000396000f3fe6080604052600436106100555760003560e01c80633ccfd60b1461005a5780638da5cb5b14610071578063b1a7910a1461009c578063b4638516146100c5578063b644f350146100f0578063ffd028911461010c575b600080fd5b34801561006657600080fd5b5061006f610137565b005b34801561007d57600080fd5b5061008661022e565b60405161009391906105e5565b60405180910390f35b3480156100a857600080fd5b506100c360048036038101906100be919061064a565b610252565b005b3480156100d157600080fd5b506100da610321565b6040516100e791906107c9565b60405180910390f35b61010a60048036038101906101059190610920565b610437565b005b34801561011857600080fd5b5061012161059e565b60405161012e9190610978565b60405180910390f35b60008054906101000a900473ffffffffffffffffffffffffffffffffffffffff1673ffffffffffffffffffffffffffffffffffffffff163373ffffffffffffffffffffffffffffffffffffffff16146101c5576040517f08c379a00000000000000000000000000000000000000000000000000000000081526004016101bc90610a16565b60405180910390fd5b60008054906101000a900473ffffffffffffffffffffffffffffffffffffffff1673ffffffffffffffffffffffffffffffffffffffff166108fc479081150290604051600060405180830381858888f1935050505015801561022b573d6000803e3d6000fd5b50565b60008054906101000a900473ffffffffffffffffffffffffffffffffffffffff1681565b60008054906101000a900473ffffffffffffffffffffffffffffffffffffffff1673ffffffffffffffffffffffffffffffffffffffff163373ffffffffffffffffffffffffffffffffffffffff16146102e0576040517f08c379a00000000000000000000000000000000000000000000000000000000081526004016102d790610a16565b60405180910390fd5b806001819055507f8c4d35e54a3f2ef1134138fd8ea3daee6a3c89e10d2665996babdf70261e2c76816040516103169190610978565b60405180910390a150565b6060600260003373ffffffffffffffffffffffffffffffffffffffff1673ffffffffffffffffffffffffffffffffffffffff168152602001908152602001600020805480602002602001604051908101604052809291908181526020016000905b8282101561042e5783829060005260206000200180546103a190610a65565b80601f01602080910402602001604051908101604052809291908181526020018280546103cd90610a65565b801561041a5780601f106103ef5761010080835404028352916020019161041a565b820191906000526020600020905b8154815290600101906020018083116103fd57829003601f168201915b505050505081526020019060010190610382565b50505050905090565b60015434101561047c576040517f08c379a000000000000000000000000000000000000000000000000000000000815260040161047390610ae2565b60405180910390fd5b600260003373ffffffffffffffffffffffffffffffffffffffff1673ffffffffffffffffffffffffffffffffffffffff168152602001908152602001600020819080600181540180825580915050600190039060005260206000200160009091909190915090816104ed9190610cae565b503373ffffffffffffffffffffffffffffffffffffffff167f92fd2035a62889716b60f996fe696b401ef46811da665cfce0d76b84deacea22826040516105349190610db9565b60405180910390a260015434111561059b573373ffffffffffffffffffffffffffffffffffffffff166108fc6001543461056e9190610e0a565b9081150290604051600060405180830381858888f19350505050158015610599573d6000803e3d6000fd5b505b50565b60015481565b600073ffffffffffffffffffffffffffffffffffffffff82169050919050565b60006105cf826105a4565b9050919050565b6105df816105c4565b82525050565b60006020820190506105fa60008301846105d6565b92915050565b6000604051905090565b600080fd5b600080fd5b6000819050919050565b61062781610614565b811461063257600080fd5b50565b6000813590506106448161061e565b92915050565b6000602082840312156106605761065f61060a565b5b600061066e84828501610635565b91505092915050565b600081519050919050565b600082825260208201905092915050565b6000819050602082019050919050565b600081519050919050565b600082825260208201905092915050565b60005b838110156106dd5780820151818401526020810190506106c2565b60008484015250505050565b6000601f19601f8301169050919050565b6000610705826106a3565b61070f81856106ae565b935061071f8185602086016106bf565b610728816106e9565b840191505092915050565b600061073f83836106fa565b905092915050565b6000602082019050919050565b600061075f82610677565b6107698185610682565b93508360208202850161077b85610693565b8060005b858110156107b757848403895281516107988582610733565b94506107a383610747565b925060208a0199505060018101905061077f565b50829750879550505050505092915050565b600060208201905081810360008301526107e38184610754565b905092915050565b600080fd5b600080fd5b7f4e487b7100000000000000000000000000000000000000000000000000000000600052604160045260246000fd5b61082d826106e9565b810181811067ffffffffffffffff8211171561084c5761084b6107f5565b5b80604052505050565b600061085f610600565b905061086b8282610824565b919050565b600067ffffffffffffffff82111561088b5761088a6107f5565b5b610894826106e9565b9050602081019050919050565b82818337600083830152505050565b60006108c36108be84610870565b610855565b9050828152602081018484840111156108df576108de6107f0565b5b6108ea8482856108a1565b509392505050565b600082601f830112610907576109066107eb565b5b81356109178482602086016108b0565b91505092915050565b6000602082840312156109365761093561060a565b5b600082013567ffffffffffffffff8111156109545761095361060f565b5b610960848285016108f2565b91505092915050565b61097281610614565b82525050565b600060208201905061098d6000830184610969565b92915050565b600082825260208201905092915050565b7f4f6e6c79206f776e65722063616e2063616c6c20746869732066756e6374696f60008201527f6e00000000000000000000000000000000000000000000000000000000000000602082015250565b6000610a00602183610993565b9150610a0b826109a4565b604082019050919050565b60006020820190508181036000830152610a2f816109f3565b9050919050565b7f4e487b7100000000000000000000000000000000000000000000000000000000600052602260045260246000fd5b60006002820490506001821680610a7d57607f821691505b602082108103610a9057610a8f610a36565b5b50919050565b7f496e73756666696369656e74207061796d656e74000000000000000000000000600082015250565b6000610acc601483610993565b9150610ad782610a96565b602082019050919050565b60006020820190508181036000830152610afb81610abf565b9050919050565b60008190508160005260206000209050919050565b60006020601f8301049050919050565b600082821b905092915050565b600060088302610b647fffffffffffffffffffffffffffffffffffffffffffffffffffffffffffffffff82610b27565b610b6e8683610b27565b95508019841693508086168417925050509392505050565b6000819050919050565b6000610bab610ba6610ba184610614565b610b86565b610614565b9050919050565b6000819050919050565b610bc583610b90565b610bd9610bd182610bb2565b848454610b34565b825550505050565b600090565b610bee610be1565b610bf9818484610bbc565b505050565b5b81811015610c1d57610c12600082610be6565b600181019050610bff565b5050565b601f821115610c6257610c3381610b02565b610c3c84610b17565b81016020851015610c4b578190505b610c5f610c5785610b17565b830182610bfe565b50505b505050565b600082821c905092915050565b6000610c8560001984600802610c67565b1980831691505092915050565b6000610c9e8383610c74565b9150826002028217905092915050565b610cb7826106a3565b67ffffffffffffffff811115610cd057610ccf6107f5565b5b610cda8254610a65565b610ce5828285610c21565b600060209050601f831160018114610d185760008415610d06578287015190505b610d108582610c92565b865550610d78565b601f198416610d2686610b02565b60005b82811015610d4e57848901518255600182019150602085019450602081019050610d29565b86831015610d6b5784890151610d67601f891682610c74565b8355505b6001600288020188555050505b505050505050565b6000610d8b826106a3565b610d958185610993565b9350610da58185602086016106bf565b610dae816106e9565b840191505092915050565b60006020820190508181036000830152610dd38184610d80565b905092915050565b7f4e487b7100000000000000000000000000000000000000000000000000000000600052601160045260246000fd5b6000610e1582610614565b9150610e2083610614565b9250828203905081811115610e3857610e37610ddb565b5b9291505056fea26469706673582212201d7a252360f75b398c8a75679ead23f2da10c6ae7cb3ef35bf56def06200e17764736f6c63430008130033",
  "linkReferences": {},
  "deployedLinkReferences": {}
}