{
  "_format": "hh-sol-artifact-1",
  "contractName": "DocumentStorage",
  "sourceName": "src/contracts/DocumentStorage.sol",
  "abi": [
    {
      "inputs": [],
      "stateMutability": "nonpayable",
      "type": "constructor"
    },
    {
      "anonymous": false,
      "inputs": [
        {
          "indexed": true,
          "internalType": "address",
          "name": "patient",
          "type": "address"
        },
        {
          "indexed": true,
          "internalType": "address",
          "name": "doctor",
          "type": "address"
        },
        {
          "indexed": false,
          "internalType": "string",
          "name": "ipfsHash",
          "type": "string"
        }
      ],
      "name": "AccessGranted",
      "type": "event"
    },
    {
      "anonymous": false,
      "inputs": [
        {
          "indexed": true,
          "internalType": "address",
          "name": "patient",
          "type": "address"
        },
        {
          "indexed": true,
          "internalType": "address",
          "name": "doctor",
          "type": "address"
        },
        {
          "indexed": false,
          "internalType": "string",
          "name": "ipfsHash",
          "type": "string"
        }
      ],
      "name": "AccessRevoked",
      "type": "event"
    },
    {
      "anonymous": false,
      "inputs": [
        {
          "indexed": true,
          "internalType": "address",
          "name": "doctor",
          "type": "address"
        },
        {
          "indexed": false,
          "internalType": "string",
          "name": "name",
          "type": "string"
        },
        {
          "indexed": false,
          "internalType": "string",
          "name": "specialization",
          "type": "string"
        }
      ],
      "name": "DoctorRegistered",
      "type": "event"
    },
    {
      "anonymous": false,
      "inputs": [
        {
          "indexed": true,
          "internalType": "address",
          "name": "user",
          "type": "address"
        },
        {
          "indexed": false,
          "internalType": "string",
          "name": "ipfsHash",
          "type": "string"
        }
      ],
      "name": "DocumentStored",
      "type": "event"
    },
    {
      "anonymous": false,
      "inputs": [
        {
          "indexed": false,
          "internalType": "uint256",
          "name": "newFee",
          "type": "uint256"
        }
      ],
      "name": "FeeUpdated",
      "type": "event"
    },
    {
      "inputs": [
        {
          "internalType": "address",
          "name": "_doctor",
          "type": "address"
        },
        {
          "internalType": "string",
          "name": "_ipfsHash",
          "type": "string"
        }
      ],
      "name": "canAccessDocument",
      "outputs": [
        {
          "internalType": "bool",
          "name": "",
          "type": "bool"
        }
      ],
      "stateMutability": "view",
      "type": "function"
    },
    {
      "inputs": [
        {
          "internalType": "address",
          "name": "",
          "type": "address"
        }
      ],
      "name": "doctors",
      "outputs": [
        {
          "internalType": "bool",
          "name": "isRegistered",
          "type": "bool"
        },
        {
          "internalType": "string",
          "name": "name",
          "type": "string"
        },
        {
          "internalType": "string",
          "name": "specialization",
          "type": "string"
        }
      ],
      "stateMutability": "view",
      "type": "function"
    },
    {
      "inputs": [],
      "name": "getDoctorAccessibleDocuments",
      "outputs": [
        {
          "internalType": "string[]",
          "name": "",
          "type": "string[]"
        }
      ],
      "stateMutability": "view",
      "type": "function"
    },
    {
      "inputs": [
        {
          "internalType": "string",
          "name": "_ipfsHash",
          "type": "string"
        }
      ],
      "name": "getDocumentDetails",
      "outputs": [
        {
          "internalType": "address",
          "name": "",
          "type": "address"
        }
      ],
      "stateMutability": "view",
      "type": "function"
    },
    {
      "inputs": [
        {
          "internalType": "string",
          "name": "_ipfsHash",
          "type": "string"
        }
      ],
      "name": "getDocumentOwner",
      "outputs": [
        {
          "internalType": "address",
          "name": "",
          "type": "address"
        }
      ],
      "stateMutability": "view",
      "type": "function"
    },
    {
      "inputs": [],
      "name": "getUserDocuments",
      "outputs": [
        {
          "internalType": "string[]",
          "name": "",
          "type": "string[]"
        }
      ],
      "stateMutability": "view",
      "type": "function"
    },
    {
      "inputs": [
        {
          "internalType": "address",
          "name": "_doctor",
          "type": "address"
        },
        {
          "internalType": "string",
          "name": "_ipfsHash",
          "type": "string"
        }
      ],
      "name": "grantAccess",
      "outputs": [],
      "stateMutability": "nonpayable",
      "type": "function"
    },
    {
      "inputs": [],
      "name": "owner",
      "outputs": [
        {
          "internalType": "address",
          "name": "",
          "type": "address"
        }
      ],
      "stateMutability": "view",
      "type": "function"
    },
    {
      "inputs": [
        {
          "internalType": "string",
          "name": "_name",
          "type": "string"
        },
        {
          "internalType": "string",
          "name": "_specialization",
          "type": "string"
        }
      ],
      "name": "registerDoctor",
      "outputs": [],
      "stateMutability": "nonpayable",
      "type": "function"
    },
    {
      "inputs": [
        {
          "internalType": "address",
          "name": "_doctor",
          "type": "address"
        },
        {
          "internalType": "string",
          "name": "_ipfsHash",
          "type": "string"
        }
      ],
      "name": "revokeAccess",
      "outputs": [],
      "stateMutability": "nonpayable",
      "type": "function"
    },
    {
      "inputs": [
        {
          "internalType": "uint256",
          "name": "_newFee",
          "type": "uint256"
        }
      ],
      "name": "setUploadFee",
      "outputs": [],
      "stateMutability": "nonpayable",
      "type": "function"
    },
    {
      "inputs": [
        {
          "internalType": "string",
          "name": "_ipfsHash",
          "type": "string"
        }
      ],
      "name": "storeDocument",
      "outputs": [],
      "stateMutability": "payable",
      "type": "function"
    },
    {
      "inputs": [],
      "name": "uploadFee",
      "outputs": [
        {
          "internalType": "uint256",
          "name": "",
          "type": "uint256"
        }
      ],
      "stateMutability": "view",
      "type": "function"
    },
    {
      "inputs": [],
      "name": "withdraw",
      "outputs": [],
      "stateMutability": "nonpayable",
      "type": "function"
    }
  ],
  "bytecode": "0x608060405266038d7ea4c6800060015534801561001b57600080fd5b50336000806101000a81548173ffffffffffffffffffffffffffffffffffffffff021916908373ffffffffffffffffffffffffffffffffffffffff1602179055506124288061006b6000396000f3fe6080604052600436106100dd5760003560e01c8063b1a7910a1161007f578063cb356d9111610059578063cb356d911461028d578063d29352db146102ca578063e50fe48e14610307578063ffd0289114610330576100dd565b8063b1a7910a1461021d578063b463851614610246578063b644f35014610271576100dd565b8063833b46bb116100bb578063833b46bb1461015f5780638da5cb5b14610188578063967f4afb146101b3578063a9583c22146101de576100dd565b806331fc39bd146100e25780633ccfd60b1461011f5780636a44cac914610136575b600080fd5b3480156100ee57600080fd5b5061010960048036038101906101049190611571565b61035b565b60405161011691906115e8565b60405180910390f35b34801561012b57600080fd5b506101346103d1565b005b34801561014257600080fd5b5061015d60048036038101906101589190611571565b6104c8565b005b34801561016b57600080fd5b5061018660048036038101906101819190611603565b610788565b005b34801561019457600080fd5b5061019d610918565b6040516101aa919061168a565b60405180910390f35b3480156101bf57600080fd5b506101c861093c565b6040516101d591906117e6565b60405180910390f35b3480156101ea57600080fd5b5061020560048036038101906102009190611808565b610ae1565b6040516102149392919061187f565b60405180910390f35b34801561022957600080fd5b50610244600480360381019061023f91906118fa565b610c28565b005b34801561025257600080fd5b5061025b610cf7565b60405161026891906117e6565b60405180910390f35b61028b60048036038101906102869190611927565b610e0d565b005b34801561029957600080fd5b506102b460048036038101906102af9190611927565b611030565b6040516102c1919061168a565b60405180910390f35b3480156102d657600080fd5b506102f160048036038101906102ec9190611927565b61107b565b6040516102fe919061168a565b60405180910390f35b34801561031357600080fd5b5061032e60048036038101906103299190611571565b6110c6565b005b34801561033c57600080fd5b50610345611356565b604051610352919061197f565b60405180910390f35b600060038260405161036d91906119d6565b908152602001604051809103902060020160008473ffffffffffffffffffffffffffffffffffffffff1673ffffffffffffffffffffffffffffffffffffffff16815260200190815260200160002060009054906101000a900460ff16905092915050565b60008054906101000a900473ffffffffffffffffffffffffffffffffffffffff1673ffffffffffffffffffffffffffffffffffffffff163373ffffffffffffffffffffffffffffffffffffffff161461045f576040517f08c379a000000000000000000000000000000000000000000000000000000000815260040161045690611a5f565b60405180910390fd5b60008054906101000a900473ffffffffffffffffffffffffffffffffffffffff1673ffffffffffffffffffffffffffffffffffffffff166108fc479081150290604051600060405180830381858888f193505050501580156104c5573d6000803e3d6000fd5b50565b3373ffffffffffffffffffffffffffffffffffffffff166003826040516104ef91906119d6565b908152602001604051809103902060010160009054906101000a900473ffffffffffffffffffffffffffffffffffffffff1673ffffffffffffffffffffffffffffffffffffffff1614610577576040517f08c379a000000000000000000000000000000000000000000000000000000000815260040161056e90611af1565b60405180910390fd5b600060038260405161058991906119d6565b908152602001604051809103902060020160008473ffffffffffffffffffffffffffffffffffffffff1673ffffffffffffffffffffffffffffffffffffffff16815260200190815260200160002060006101000a81548160ff0219169083151502179055506000600560008473ffffffffffffffffffffffffffffffffffffffff1673ffffffffffffffffffffffffffffffffffffffff168152602001908152602001600020905060005b818054905081101561071d57828051906020012082828154811061065b5761065a611b11565b5b906000526020600020016040516106729190611c43565b60405180910390200361070a5781600183805490506106919190611c89565b815481106106a2576106a1611b11565b5b906000526020600020018282815481106106bf576106be611b11565b5b9060005260206000200190816106d59190611e94565b50818054806106e7576106e6611f7c565b5b600190038181906000526020600020016000610703919061135c565b905561071d565b808061071590611fab565b915050610634565b508273ffffffffffffffffffffffffffffffffffffffff163373ffffffffffffffffffffffffffffffffffffffff167f0a2382b7b0f44ee62df753c00034038c109332bf9b8f52418af74aa2859780fb8460405161077b9190611ff3565b60405180910390a3505050565b600260003373ffffffffffffffffffffffffffffffffffffffff1673ffffffffffffffffffffffffffffffffffffffff16815260200190815260200160002060000160009054906101000a900460ff1615610818576040517f08c379a000000000000000000000000000000000000000000000000000000000815260040161080f90612061565b60405180910390fd5b604051806060016040528060011515815260200183815260200182815250600260003373ffffffffffffffffffffffffffffffffffffffff1673ffffffffffffffffffffffffffffffffffffffff16815260200190815260200160002060008201518160000160006101000a81548160ff02191690831515021790555060208201518160010190816108aa9190612081565b5060408201518160020190816108c09190612081565b509050503373ffffffffffffffffffffffffffffffffffffffff167fbc3a5b2aeb1bc52e3d56d3fd3423dd66cea5ecff8ae1f3bd0d75a0e608da7b85838360405161090c929190612153565b60405180910390a25050565b60008054906101000a900473ffffffffffffffffffffffffffffffffffffffff1681565b6060600260003373ffffffffffffffffffffffffffffffffffffffff1673ffffffffffffffffffffffffffffffffffffffff16815260200190815260200160002060000160009054906101000a900460ff166109cd576040517f08c379a00000000000000000000000000000000000000000000000000000000081526004016109c4906121fc565b60405180910390fd5b600560003373ffffffffffffffffffffffffffffffffffffffff1673ffffffffffffffffffffffffffffffffffffffff168152602001908152602001600020805480602002602001604051908101604052809291908181526020016000905b82821015610ad8578382906000526020600020018054610a4b90611b6f565b80601f0160208091040260200160405190810160405280929190818152602001828054610a7790611b6f565b8015610ac45780601f10610a9957610100808354040283529160200191610ac4565b820191906000526020600020905b815481529060010190602001808311610aa757829003601f168201915b505050505081526020019060010190610a2c565b50505050905090565b60026020528060005260406000206000915090508060000160009054906101000a900460ff1690806001018054610b1790611b6f565b80601f0160208091040260200160405190810160405280929190818152602001828054610b4390611b6f565b8015610b905780601f10610b6557610100808354040283529160200191610b90565b820191906000526020600020905b815481529060010190602001808311610b7357829003601f168201915b505050505090806002018054610ba590611b6f565b80601f0160208091040260200160405190810160405280929190818152602001828054610bd190611b6f565b8015610c1e5780601f10610bf357610100808354040283529160200191610c1e565b820191906000526020600020905b815481529060010190602001808311610c0157829003601f168201915b5050505050905083565b60008054906101000a900473ffffffffffffffffffffffffffffffffffffffff1673ffffffffffffffffffffffffffffffffffffffff163373ffffffffffffffffffffffffffffffffffffffff1614610cb6576040517f08c379a0000000000000000000000000000000000000000000000000000000008152600401610cad90611a5f565b60405180910390fd5b806001819055507f8c4d35e54a3f2ef1134138fd8ea3daee6a3c89e10d2665996babdf70261e2c7681604051610cec919061197f565b60405180910390a150565b6060600460003373ffffffffffffffffffffffffffffffffffffffff1673ffffffffffffffffffffffffffffffffffffffff168152602001908152602001600020805480602002602001604051908101604052809291908181526020016000905b82821015610e04578382906000526020600020018054610d7790611b6f565b80601f0160208091040260200160405190810160405280929190818152602001828054610da390611b6f565b8015610df05780601f10610dc557610100808354040283529160200191610df0565b820191906000526020600020905b815481529060010190602001808311610dd357829003601f168201915b505050505081526020019060010190610d58565b50505050905090565b600154341015610e52576040517f08c379a0000000000000000000000000000000000000000000000000000000008152600401610e4990612268565b60405180910390fd5b6000815111610e96576040517f08c379a0000000000000000000000000000000000000000000000000000000008152600401610e8d906122d4565b60405180910390fd5b6000600382604051610ea891906119d6565b9081526020016040518091039020905081816000019081610ec99190612081565b50338160010160006101000a81548173ffffffffffffffffffffffffffffffffffffffff021916908373ffffffffffffffffffffffffffffffffffffffff160217905550600460003373ffffffffffffffffffffffffffffffffffffffff1673ffffffffffffffffffffffffffffffffffffffff16815260200190815260200160002082908060018154018082558091505060019003906000526020600020016000909190919091509081610f7e9190612081565b503373ffffffffffffffffffffffffffffffffffffffff167f92fd2035a62889716b60f996fe696b401ef46811da665cfce0d76b84deacea2283604051610fc59190611ff3565b60405180910390a260015434111561102c573373ffffffffffffffffffffffffffffffffffffffff166108fc60015434610fff9190611c89565b9081150290604051600060405180830381858888f1935050505015801561102a573d6000803e3d6000fd5b505b5050565b600060038260405161104291906119d6565b908152602001604051809103902060010160009054906101000a900473ffffffffffffffffffffffffffffffffffffffff169050919050565b600060038260405161108d91906119d6565b908152602001604051809103902060010160009054906101000a900473ffffffffffffffffffffffffffffffffffffffff169050919050565b3373ffffffffffffffffffffffffffffffffffffffff166003826040516110ed91906119d6565b908152602001604051809103902060010160009054906101000a900473ffffffffffffffffffffffffffffffffffffffff1673ffffffffffffffffffffffffffffffffffffffff1614611175576040517f08c379a000000000000000000000000000000000000000000000000000000000815260040161116c90612366565b60405180910390fd5b600260008373ffffffffffffffffffffffffffffffffffffffff1673ffffffffffffffffffffffffffffffffffffffff16815260200190815260200160002060000160009054906101000a900460ff16611204576040517f08c379a00000000000000000000000000000000000000000000000000000000081526004016111fb906123d2565b60405180910390fd5b600160038260405161121691906119d6565b908152602001604051809103902060020160008473ffffffffffffffffffffffffffffffffffffffff1673ffffffffffffffffffffffffffffffffffffffff16815260200190815260200160002060006101000a81548160ff021916908315150217905550600560008373ffffffffffffffffffffffffffffffffffffffff1673ffffffffffffffffffffffffffffffffffffffff168152602001908152602001600020819080600181540180825580915050600190039060005260206000200160009091909190915090816112ec9190612081565b508173ffffffffffffffffffffffffffffffffffffffff163373ffffffffffffffffffffffffffffffffffffffff167fc7e5c007251689b9bc3cb624f55714afc5988f3e3b4e20cc6a606d7bad6faeca8360405161134a9190611ff3565b60405180910390a35050565b60015481565b50805461136890611b6f565b6000825580601f1061137a5750611399565b601f016020900490600052602060002090810190611398919061139c565b5b50565b5b808211156113b557600081600090555060010161139d565b5090565b6000604051905090565b600080fd5b600080fd5b600073ffffffffffffffffffffffffffffffffffffffff82169050919050565b60006113f8826113cd565b9050919050565b611408816113ed565b811461141357600080fd5b50565b600081359050611425816113ff565b92915050565b600080fd5b600080fd5b6000601f19601f8301169050919050565b7f4e487b7100000000000000000000000000000000000000000000000000000000600052604160045260246000fd5b61147e82611435565b810181811067ffffffffffffffff8211171561149d5761149c611446565b5b80604052505050565b60006114b06113b9565b90506114bc8282611475565b919050565b600067ffffffffffffffff8211156114dc576114db611446565b5b6114e582611435565b9050602081019050919050565b82818337600083830152505050565b600061151461150f846114c1565b6114a6565b9050828152602081018484840111156115305761152f611430565b5b61153b8482856114f2565b509392505050565b600082601f8301126115585761155761142b565b5b8135611568848260208601611501565b91505092915050565b60008060408385031215611588576115876113c3565b5b600061159685828601611416565b925050602083013567ffffffffffffffff8111156115b7576115b66113c8565b5b6115c385828601611543565b9150509250929050565b60008115159050919050565b6115e2816115cd565b82525050565b60006020820190506115fd60008301846115d9565b92915050565b6000806040838503121561161a576116196113c3565b5b600083013567ffffffffffffffff811115611638576116376113c8565b5b61164485828601611543565b925050602083013567ffffffffffffffff811115611665576116646113c8565b5b61167185828601611543565b9150509250929050565b611684816113ed565b82525050565b600060208201905061169f600083018461167b565b92915050565b600081519050919050565b600082825260208201905092915050565b6000819050602082019050919050565b600081519050919050565b600082825260208201905092915050565b60005b8381101561170b5780820151818401526020810190506116f0565b60008484015250505050565b6000611722826116d1565b61172c81856116dc565b935061173c8185602086016116ed565b61174581611435565b840191505092915050565b600061175c8383611717565b905092915050565b6000602082019050919050565b600061177c826116a5565b61178681856116b0565b935083602082028501611798856116c1565b8060005b858110156117d457848403895281516117b58582611750565b94506117c083611764565b925060208a0199505060018101905061179c565b50829750879550505050505092915050565b600060208201905081810360008301526118008184611771565b905092915050565b60006020828403121561181e5761181d6113c3565b5b600061182c84828501611416565b91505092915050565b600082825260208201905092915050565b6000611851826116d1565b61185b8185611835565b935061186b8185602086016116ed565b61187481611435565b840191505092915050565b600060608201905061189460008301866115d9565b81810360208301526118a68185611846565b905081810360408301526118ba8184611846565b9050949350505050565b6000819050919050565b6118d7816118c4565b81146118e257600080fd5b50565b6000813590506118f4816118ce565b92915050565b6000602082840312156119105761190f6113c3565b5b600061191e848285016118e5565b91505092915050565b60006020828403121561193d5761193c6113c3565b5b600082013567ffffffffffffffff81111561195b5761195a6113c8565b5b61196784828501611543565b91505092915050565b611979816118c4565b82525050565b60006020820190506119946000830184611970565b92915050565b600081905092915050565b60006119b0826116d1565b6119ba818561199a565b93506119ca8185602086016116ed565b80840191505092915050565b60006119e282846119a5565b915081905092915050565b7f4f6e6c79206f776e65722063616e2063616c6c20746869732066756e6374696f60008201527f6e00000000000000000000000000000000000000000000000000000000000000602082015250565b6000611a49602183611835565b9150611a54826119ed565b604082019050919050565b60006020820190508181036000830152611a7881611a3c565b9050919050565b7f4f6e6c7920646f63756d656e74206f776e65722063616e207265766f6b65206160008201527f6363657373000000000000000000000000000000000000000000000000000000602082015250565b6000611adb602583611835565b9150611ae682611a7f565b604082019050919050565b60006020820190508181036000830152611b0a81611ace565b9050919050565b7f4e487b7100000000000000000000000000000000000000000000000000000000600052603260045260246000fd5b7f4e487b7100000000000000000000000000000000000000000000000000000000600052602260045260246000fd5b60006002820490506001821680611b8757607f821691505b602082108103611b9a57611b99611b40565b5b50919050565b600081905092915050565b60008190508160005260206000209050919050565b60008154611bcd81611b6f565b611bd78186611ba0565b94506001821660008114611bf25760018114611c0757611c3a565b60ff1983168652811515820286019350611c3a565b611c1085611bab565b60005b83811015611c3257815481890152600182019150602081019050611c13565b838801955050505b50505092915050565b6000611c4f8284611bc0565b915081905092915050565b7f4e487b7100000000000000000000000000000000000000000000000000000000600052601160045260246000fd5b6000611c94826118c4565b9150611c9f836118c4565b9250828203905081811115611cb757611cb6611c5a565b5b92915050565b600081549050611ccc81611b6f565b9050919050565b60008190508160005260206000209050919050565b60008190508160005260206000209050919050565b60006020601f8301049050919050565b600082821b905092915050565b600060088302611d4a7fffffffffffffffffffffffffffffffffffffffffffffffffffffffffffffffff82611d0d565b611d548683611d0d565b95508019841693508086168417925050509392505050565b6000819050919050565b6000611d91611d8c611d87846118c4565b611d6c565b6118c4565b9050919050565b6000819050919050565b611dab83611d76565b611dbf611db782611d98565b848454611d1a565b825550505050565b600090565b611dd4611dc7565b611ddf818484611da2565b505050565b5b81811015611e0357611df8600082611dcc565b600181019050611de5565b5050565b601f821115611e4857611e1981611cd3565b611e2284611cfd565b81016020851015611e31578190505b611e45611e3d85611cfd565b830182611de4565b50505b505050565b600082821c905092915050565b6000611e6b60001984600802611e4d565b1980831691505092915050565b6000611e848383611e5a565b9150826002028217905092915050565b818103611ea2575050611f7a565b611eab82611cbd565b67ffffffffffffffff811115611ec457611ec3611446565b5b611ece8254611b6f565b611ed9828285611e07565b6000601f831160018114611f085760008415611ef6578287015490505b611f008582611e78565b865550611f73565b601f198416611f1687611ce8565b9650611f2186611cd3565b60005b82811015611f4957848901548255600182019150600185019450602081019050611f24565b86831015611f665784890154611f62601f891682611e5a565b8355505b6001600288020188555050505b5050505050505b565b7f4e487b7100000000000000000000000000000000000000000000000000000000600052603160045260246000fd5b6000611fb6826118c4565b91507fffffffffffffffffffffffffffffffffffffffffffffffffffffffffffffffff8203611fe857611fe7611c5a565b5b600182019050919050565b6000602082019050818103600083015261200d8184611846565b905092915050565b7f446f63746f7220616c7265616479207265676973746572656400000000000000600082015250565b600061204b601983611835565b915061205682612015565b602082019050919050565b6000602082019050818103600083015261207a8161203e565b9050919050565b61208a826116d1565b67ffffffffffffffff8111156120a3576120a2611446565b5b6120ad8254611b6f565b6120b8828285611e07565b600060209050601f8311600181146120eb57600084156120d9578287015190505b6120e38582611e78565b86555061214b565b601f1984166120f986611cd3565b60005b82811015612121578489015182556001820191506020850194506020810190506120fc565b8683101561213e578489015161213a601f891682611e5a565b8355505b6001600288020188555050505b505050505050565b6000604082019050818103600083015261216d8185611846565b905081810360208301526121818184611846565b90509392505050565b7f4f6e6c79207265676973746572656420646f63746f72732063616e2063616c6c60008201527f20746869732066756e6374696f6e000000000000000000000000000000000000602082015250565b60006121e6602e83611835565b91506121f18261218a565b604082019050919050565b60006020820190508181036000830152612215816121d9565b9050919050565b7f496e73756666696369656e74207061796d656e74000000000000000000000000600082015250565b6000612252601483611835565b915061225d8261221c565b602082019050919050565b6000602082019050818103600083015261228181612245565b9050919050565b7f496e76616c696420495046532068617368000000000000000000000000000000600082015250565b60006122be601183611835565b91506122c982612288565b602082019050919050565b600060208201905081810360008301526122ed816122b1565b9050919050565b7f4f6e6c7920646f63756d656e74206f776e65722063616e206772616e7420616360008201527f6365737300000000000000000000000000000000000000000000000000000000602082015250565b6000612350602483611835565b915061235b826122f4565b604082019050919050565b6000602082019050818103600083015261237f81612343565b9050919050565b7f446f63746f72206973206e6f7420726567697374657265640000000000000000600082015250565b60006123bc601883611835565b91506123c782612386565b602082019050919050565b600060208201905081810360008301526123eb816123af565b905091905056fea2646970667358221220389a985ef8eeb2fa56be87587fd671fc146384595b40cbc7a61a6e363879159a64736f6c63430008130033",
  "linkReferences": {},
  "deployedLinkReferences": {}
}